:020000040000FA
:1000000001288316031306309F00FF30850000305F
:1000100086008800FF308700831203133F3085007D
:100020000F308600880087140715051827288518C3
:100030002A2805192D2885193028051A3328851AEC
:1000400036288718392807193C283F281528061014
:100050000616152886108616152806110617152867
:100060008611861715280810081615288810881676
:100070001528081108171528881188171528061241
:1000800006148612861406130615861386150812A2
:100090000814881288140813081588138815152861
:02400E00313F40
:00000001FF
